:020000040000FA
:0A00000070280000000000005C28DA
:06000A00820701340234FC
:1000100004340834103420344034803482070134EE
:100020000234043440348034003400340034820715
:10003000103426343C345234A001103034200319DB
:100040000800A00A2630342003190800A00A3C301A
:10005000342003190800A00A523034200319080084
:10006000FF30A000A1000800A101831603139B002C
:10007000831603131C141A0883120313A200831699
:1000800003139B0A1C141A0883120313A3002308EA
:100090003806031D50281F303705220603190800B3
:1000A000831603139B0A83120313A10A0B30210644
:1000B000031D382803110800AC0003088301AD00BC
:1000C0000A08AE008A010408AF000B19D7202F08D8
:1000D00084002E088A002D088300AC0E2C0E090027
:1000E00000308500860007309F00851EE7288316B4
:1000F0000313103085000030860064000330810057
:100100008B16831203138101A7018B17A401A5018C
:10011000A601FF30AA00AB008421FF39031D8C2803
:100120001C20031D8C283030A700370826062039F4
:1001300003198C2820303705A6000B302102031844
:100140008C2807302105A11DA9280E20A800A9018F
:10015000AC280520A801A9008B13A018C1282018DD
:10016000BA282808AA042908AB042808A4062908E4
:10017000A506D328FF302806A405FF302906A505CB
:10018000D328201CCA28FF302806AA05FF302906DC
:10019000AB05CE282808AA042908AB042808A40423
:1001A0002908A504D3280830E0208B178C280B11D0
:1001B000A708031DE5282A08A4052B08A50500307B
:1001C00024048500250886000800A703080083167C
:1001D000031310308500FF30860064000330810077
:1001E00083120313A601060C07390319622984211F
:1001F000FF39031DF7283708260620390319F72889
:1002000020303705A600060C0739B100060E0F395D
:100210000F3AB00002303106031954290B30300276
:100220000318F7280310B00D4321031DF728B0076A
:100230001C200319F7283008831603139B001C1594
:1002400083120313083085001F303705831603130C
:100250009A0055309D00AA309D009C149C182E29B0
:100260009B0A831203133808831603139A00553030
:100270009D00AA309D009C149C183C291C118312DF
:1002800003138501F728033031060319263405309E
:10029000310603193C34013031060319103406309D
:1002A000310603195234FF341C20031DF72883162E
:1002B00003131B086C21831603131B036C21831289
:1002C000031354291030B00030086C21B00A683094
:1002D0003006031D6429F728831603139B001C15A1
:1002E0008312031308308500FF30831603139A002E
:1002F00055309D00AA309D009C149C187D291C112E
:100300008312031385010800B514351037308400BB
:100310000230B6003515B201051A8C29B301051A51
:100320009829B30A000094303302031C8F2901344A
:10033000B3013518A329051EAB29F7303302031882
:100340000234B30A9B29051AAB29F730330203188C
:100350000234B30AA3290130B50631303302031C3D
:10036000033494303302031CB829B51CBC2904346F
:100370000230B506B5189829351DC529351C053438
:10038000B20A35110630B2009829350CB40DB2030B
:100390000319CB2998293F3034058000840AB60B15
:0403A000C22900343A
:044000000034003454
:02400E00413F30
:104220000000FF000000FF000000FF000000FF0092
:104230000000050000000600000007000000080064
:10424000000009000000FF000000FF000000FF0068
:104250000000FF000000FF000000FF000000FF0062
:104260000000FF000000FF000000FF000000FF0052
:104270000000FF00000011000000FF000000FF0030
:104280000000FF000000FF000000FF000000FF0032
:104290000000FF000000FF000000FF000000FF0022
:1042A00000001000000000000000010000000200FB
:1042B00000000300000004000000FF000000FF00F9
:1042C0000000FF000000FF000000FF000000FF00F2
:0242D000FF00ED
:00000001FF
